:020000040000FA
:020000000628D0
:040002000034003492
:0800080000000900210068302E
:1000100099009C20210028309D0070309E009F0197
:100020001D1420009C019A01FF309B001C152C0020
:1000300098019701191799179201910113179317B6
:100040009501940116179617063085001830840024
:1000500020002E204C2039209320292821001930FF
:100060009D009D149D1832281C08F6001B08F700FF
:100070000800210029309D009D149D183D281C0872
:10008000F8001C08F90008007608F000F00CF700F2
:100090007008F00CF60008002C007608F0004030E4
:1000A000F2007608720203185A2876087207031CB9
:1000B00068287E2874107514731070087202FA0094
:1000C00092007202FB009500FC0198019701080064
:1000D00074107510731470087202543CF10054309F
:1000E0007102FC0098007008403CF0008030700203
:1000F000FB009500FA01920191010800741475103B
:1001000073107008553C7202BE307002FA00920003
:100110007008403CF000803C7002FC009800FB013D
:100120009501940108002C007808751C9800741C37
:100130009500731C9200080022008C018D018E0135
:10014000230000308C0010308D0004308E00210020
:0E015000FB308C003F308D0015308E00080013
:020000040001F9
:02000E00E40903
:02001000FF3FB0
:00000001FF
