:020000040000FA
:020000000628D0
:040002000034003492
:0800080000000900210068302E
:100010009900C020210028309D0070309E009F0173
:100020001D1420009C019A01FF309B001C152C0020
:1000300098019701191799179201910113179317B6
:100040009501940116179617063085001830840024
:1000500020002E204C2039209620292821001930FC
:100060009D009D149D1832281C08F6001B08F700FF
:100070000800210029309D009D149D183D281C0872
:10008000F8001C08F90008007608F000F00CF700F2
:100090007008F00CF60008002C007608F0004030E4
:1000A000F2007608720203185A2876087207031CB9
:1000B000692880287310741475147608F000720291
:1000C000FC0092007202FD009500FE01980197016C
:1000D00008007410731475147608F0007202543C12
:1000E000F10054307102FE0098007008403CF000AE
:1000F00080307002FD009500FC0192019101080022
:100100007510731474147608F000553C7202BE30FA
:100110007002FC0092007008403CF000823C7002CB
:10012000FE009800FD019501940108002C0078085C
:100130006430FA00FB01FB07FA0B9B28731CA5280F
:10014000741CAF28751CB92808007D080319AB285A
:100150007808FB0795007808FB07920008007E08E6
:100160000319B5287808FB0798007808FB07950065
:1001700008007E080319AB287808FB0298070800DE
:1001800022008C018D018E01230000308C00103084
:100190008D0004308E002100FB308C003F308D003C
:0601A00015308E0008007E
:020000040001F9
:02000E00E40903
:02001000FF3FB0
:00000001FF
